{
  "_format": "hh-sol-artifact-1",
  "contractName": "PropertyTemplate",
  "sourceName": "contracts/PropertyTemplate.sol",
  "abi": [
    {
      "inputs": [
        {
          "internalType": "string",
          "name": "_name",
          "type": "string"
        },
        {
          "internalType": "uint256",
          "name": "_totalShares",
          "type": "uint256"
        }
      ],
      "stateMutability": "nonpayable",
      "type": "constructor"
    },
    {
      "anonymous": false,
      "inputs": [
        {
          "indexed": true,
          "internalType": "address",
          "name": "from",
          "type": "address"
        },
        {
          "indexed": true,
          "internalType": "address",
          "name": "to",
          "type": "address"
        },
        {
          "indexed": false,
          "internalType": "uint256",
          "name": "shares",
          "type": "uint256"
        }
      ],
      "name": "SharesTransferred",
      "type": "event"
    },
    {
      "inputs": [
        {
          "internalType": "address",
          "name": "",
          "type": "address"
        }
      ],
      "name": "balances",
      "outputs": [
        {
          "internalType": "uint256",
          "name": "",
          "type": "uint256"
        }
      ],
      "stateMutability": "view",
      "type": "function"
    },
    {
      "inputs": [
        {
          "internalType": "address",
          "name": "account",
          "type": "address"
        }
      ],
      "name": "getBalance",
      "outputs": [
        {
          "internalType": "uint256",
          "name": "",
          "type": "uint256"
        }
      ],
      "stateMutability": "view",
      "type": "function"
    },
    {
      "inputs": [],
      "name": "name",
      "outputs": [
        {
          "internalType": "string",
          "name": "",
          "type": "string"
        }
      ],
      "stateMutability": "view",
      "type": "function"
    },
    {
      "inputs": [],
      "name": "owner",
      "outputs": [
        {
          "internalType": "address",
          "name": "",
          "type": "address"
        }
      ],
      "stateMutability": "view",
      "type": "function"
    },
    {
      "inputs": [],
      "name": "totalShares",
      "outputs": [
        {
          "internalType": "uint256",
          "name": "",
          "type": "uint256"
        }
      ],
      "stateMutability": "view",
      "type": "function"
    },
    {
      "inputs": [
        {
          "internalType": "address",
          "name": "to",
          "type": "address"
        },
        {
          "internalType": "uint256",
          "name": "shares",
          "type": "uint256"
        }
      ],
      "name": "transferShares",
      "outputs": [],
      "stateMutability": "nonpayable",
      "type": "function"
    }
  ],
  "bytecode": "0x60806040523480156200001157600080fd5b5060405162000dff38038062000dff8339818101604052810190620000379190620002cd565b816000908162000048919062000574565b508060018190555033600260006101000a81548173ffffffffffffffffffffffffffffffffffffffff021916908373ffffffffffffffffffffffffffffffffffffffff1602179055508060036000600260009054906101000a900473ffffffffffffffffffffffffffffffffffffffff1673ffffffffffffffffffffffffffffffffffffffff1673ffffffffffffffffffffffffffffffffffffffff1681526020019081526020016000208190555050506200065b565b6000604051905090565b600080fd5b600080fd5b600080fd5b600080fd5b6000601f19601f8301169050919050565b7f4e487b7100000000000000000000000000000000000000000000000000000000600052604160045260246000fd5b62000168826200011d565b810181811067ffffffffffffffff821117156200018a57620001896200012e565b5b80604052505050565b60006200019f620000ff565b9050620001ad82826200015d565b919050565b600067ffffffffffffffff821115620001d057620001cf6200012e565b5b620001db826200011d565b9050602081019050919050565b60005b8381101562000208578082015181840152602081019050620001eb565b60008484015250505050565b60006200022b6200022584620001b2565b62000193565b9050828152602081018484840111156200024a576200024962000118565b5b62000257848285620001e8565b509392505050565b600082601f83011262000277576200027662000113565b5b81516200028984826020860162000214565b91505092915050565b6000819050919050565b620002a78162000292565b8114620002b357600080fd5b50565b600081519050620002c7816200029c565b92915050565b60008060408385031215620002e757620002e662000109565b5b600083015167ffffffffffffffff8111156200030857620003076200010e565b5b62000316858286016200025f565b92505060206200032985828601620002b6565b9150509250929050565b600081519050919050565b7f4e487b7100000000000000000000000000000000000000000000000000000000600052602260045260246000fd5b600060028204905060018216806200038657607f821691505b6020821081036200039c576200039b6200033e565b5b50919050565b60008190508160005260206000209050919050565b60006020601f8301049050919050565b600082821b905092915050565b600060088302620004067fffffffffffffffffffffffffffffffffffffffffffffffffffffffffffffffff82620003c7565b620004128683620003c7565b95508019841693508086168417925050509392505050565b6000819050919050565b6000620004556200044f620004498462000292565b6200042a565b62000292565b9050919050565b6000819050919050565b620004718362000434565b6200048962000480826200045c565b848454620003d4565b825550505050565b600090565b620004a062000491565b620004ad81848462000466565b505050565b5b81811015620004d557620004c960008262000496565b600181019050620004b3565b5050565b601f8211156200052457620004ee81620003a2565b620004f984620003b7565b8101602085101562000509578190505b620005216200051885620003b7565b830182620004b2565b50505b505050565b600082821c905092915050565b6000620005496000198460080262000529565b1980831691505092915050565b600062000564838362000536565b9150826002028217905092915050565b6200057f8262000333565b67ffffffffffffffff8111156200059b576200059a6200012e565b5b620005a782546200036d565b620005b4828285620004d9565b600060209050601f831160018114620005ec5760008415620005d7578287015190505b620005e3858262000556565b86555062000653565b601f198416620005fc86620003a2565b60005b828110156200062657848901518255600182019150602085019450602081019050620005ff565b8683101562000646578489015162000642601f89168262000536565b8355505b6001600288020188555050505b505050505050565b610794806200066b6000396000f3fe608060405234801561001057600080fd5b50600436106100625760003560e01c806306fdde031461006757806327e235e3146100855780633a98ef39146100b55780638da5cb5b146100d35780638fcb4e5b146100f1578063f8b2cb4f1461010d575b600080fd5b61006f61013d565b60405161007c919061047f565b60405180910390f35b61009f600480360381019061009a9190610504565b6101cb565b6040516100ac919061054a565b60405180910390f35b6100bd6101e3565b6040516100ca919061054a565b60405180910390f35b6100db6101e9565b6040516100e89190610574565b60405180910390f35b61010b600480360381019061010691906105bb565b61020f565b005b61012760048036038101906101229190610504565b6103a6565b604051610134919061054a565b60405180910390f35b6000805461014a9061062a565b80601f01602080910402602001604051908101604052809291908181526020018280546101769061062a565b80156101c35780601f10610198576101008083540402835291602001916101c3565b820191906000526020600020905b8154815290600101906020018083116101a657829003601f168201915b505050505081565b60036020528060005260406000206000915090505481565b60015481565b600260009054906101000a900473ffffffffffffffffffffffffffffffffffffffff1681565b80600360003373ffffffffffffffffffffffffffffffffffffffff1673ffffffffffffffffffffffffffffffffffffffff168152602001908152602001600020541015610291576040517f08c379a0000000000000000000000000000000000000000000000000000000008152600401610288906106a7565b60405180910390fd5b80600360003373ffffffffffffffffffffffffffffffffffffffff1673ffffffffffffffffffffffffffffffffffffffff16815260200190815260200160002060008282546102e091906106f6565b9250508190555080600360008473ffffffffffffffffffffffffffffffffffffffff1673ffffffffffffffffffffffffffffffffffffffff1681526020019081526020016000206000828254610336919061072a565b925050819055508173ffffffffffffffffffffffffffffffffffffffff163373ffffffffffffffffffffffffffffffffffffffff167f99c01cd4f8275976ef33d24514b1694c8a9d5730d92e26996834343e09778e998360405161039a919061054a565b60405180910390a35050565b6000600360008373ffffffffffffffffffffffffffffffffffffffff1673ffffffffffffffffffffffffffffffffffffffff168152602001908152602001600020549050919050565b600081519050919050565b600082825260208201905092915050565b60005b8381101561042957808201518184015260208101905061040e565b60008484015250505050565b6000601f19601f8301169050919050565b6000610451826103ef565b61045b81856103fa565b935061046b81856020860161040b565b61047481610435565b840191505092915050565b600060208201905081810360008301526104998184610446565b905092915050565b600080fd5b600073ffffffffffffffffffffffffffffffffffffffff82169050919050565b60006104d1826104a6565b9050919050565b6104e1816104c6565b81146104ec57600080fd5b50565b6000813590506104fe816104d8565b92915050565b60006020828403121561051a576105196104a1565b5b6000610528848285016104ef565b91505092915050565b6000819050919050565b61054481610531565b82525050565b600060208201905061055f600083018461053b565b92915050565b61056e816104c6565b82525050565b60006020820190506105896000830184610565565b92915050565b61059881610531565b81146105a357600080fd5b50565b6000813590506105b58161058f565b92915050565b600080604083850312156105d2576105d16104a1565b5b60006105e0858286016104ef565b92505060206105f1858286016105a6565b9150509250929050565b7f4e487b7100000000000000000000000000000000000000000000000000000000600052602260045260246000fd5b6000600282049050600182168061064257607f821691505b602082108103610655576106546105fb565b5b50919050565b7f4e6f7420656e6f75676820736861726573000000000000000000000000000000600082015250565b60006106916011836103fa565b915061069c8261065b565b602082019050919050565b600060208201905081810360008301526106c081610684565b9050919050565b7f4e487b7100000000000000000000000000000000000000000000000000000000600052601160045260246000fd5b600061070182610531565b915061070c83610531565b9250828203905081811115610724576107236106c7565b5b92915050565b600061073582610531565b915061074083610531565b9250828201905080821115610758576107576106c7565b5b9291505056fea2646970667358221220c7c7ebf15698d1ad73289579e8304f5130512a103907a1d0e99475e116bb086264736f6c63430008140033",
  "linkReferences": {},
  "deployedLinkReferences": {}
}